{
  "_format": "hh-sol-artifact-1",
  "contractName": "AGIClubAccessRegistry",
  "sourceName": "contracts/AGIClubAccessRegistry.sol",
  "abi": [
    {
      "inputs": [
        {
          "internalType": "address",
          "name": "initialOwner",
          "type": "address"
        },
        {
          "internalType": "address",
          "name": "registryAddress",
          "type": "address"
        },
        {
          "internalType": "address",
          "name": "wrapperAddress",
          "type": "address"
        },
        {
          "internalType": "bytes32",
          "name": "clubParentNode",
          "type": "bytes32"
        }
      ],
      "stateMutability": "nonpayable",
      "type": "constructor"
    },
    {
      "inputs": [],
      "name": "EnforcedPause",
      "type": "error"
    },
    {
      "inputs": [],
      "name": "ExpectedPause",
      "type": "error"
    },
    {
      "inputs": [],
      "name": "InvalidAddress",
      "type": "error"
    },
    {
      "inputs": [],
      "name": "InvalidCapabilities",
      "type": "error"
    },
    {
      "inputs": [],
      "name": "InvalidLabel",
      "type": "error"
    },
    {
      "inputs": [
        {
          "internalType": "address",
          "name": "owner",
          "type": "address"
        }
      ],
      "name": "OwnableInvalidOwner",
      "type": "error"
    },
    {
      "inputs": [
        {
          "internalType": "address",
          "name": "account",
          "type": "address"
        }
      ],
      "name": "OwnableUnauthorizedAccount",
      "type": "error"
    },
    {
      "inputs": [],
      "name": "UnknownMembership",
      "type": "error"
    },
    {
      "anonymous": false,
      "inputs": [
        {
          "indexed": true,
          "internalType": "bytes32",
          "name": "node",
          "type": "bytes32"
        },
        {
          "indexed": false,
          "internalType": "string",
          "name": "label",
          "type": "string"
        },
        {
          "indexed": false,
          "internalType": "enum AGIClubAccessRegistry.Tier",
          "name": "tier",
          "type": "uint8"
        },
        {
          "indexed": false,
          "internalType": "uint256",
          "name": "capabilities",
          "type": "uint256"
        },
        {
          "indexed": false,
          "internalType": "bool",
          "name": "active",
          "type": "bool"
        },
        {
          "indexed": false,
          "internalType": "uint64",
          "name": "validUntil",
          "type": "uint64"
        },
        {
          "indexed": false,
          "internalType": "bytes32",
          "name": "resourceRoot",
          "type": "bytes32"
        }
      ],
      "name": "MembershipConfigured",
      "type": "event"
    },
    {
      "anonymous": false,
      "inputs": [
        {
          "indexed": true,
          "internalType": "bytes32",
          "name": "node",
          "type": "bytes32"
        },
        {
          "indexed": false,
          "internalType": "string",
          "name": "label",
          "type": "string"
        }
      ],
      "name": "MembershipRemoved",
      "type": "event"
    },
    {
      "anonymous": false,
      "inputs": [
        {
          "indexed": true,
          "internalType": "address",
          "name": "previousOwner",
          "type": "address"
        },
        {
          "indexed": true,
          "internalType": "address",
          "name": "newOwner",
          "type": "address"
        }
      ],
      "name": "OwnershipTransferStarted",
      "type": "event"
    },
    {
      "anonymous": false,
      "inputs": [
        {
          "indexed": true,
          "internalType": "address",
          "name": "previousOwner",
          "type": "address"
        },
        {
          "indexed": true,
          "internalType": "address",
          "name": "newOwner",
          "type": "address"
        }
      ],
      "name": "OwnershipTransferred",
      "type": "event"
    },
    {
      "anonymous": false,
      "inputs": [
        {
          "indexed": false,
          "internalType": "address",
          "name": "account",
          "type": "address"
        }
      ],
      "name": "Paused",
      "type": "event"
    },
    {
      "anonymous": false,
      "inputs": [
        {
          "indexed": false,
          "internalType": "address",
          "name": "account",
          "type": "address"
        }
      ],
      "name": "Unpaused",
      "type": "event"
    },
    {
      "inputs": [],
      "name": "CAP_AGENT",
      "outputs": [
        {
          "internalType": "uint256",
          "name": "",
          "type": "uint256"
        }
      ],
      "stateMutability": "view",
      "type": "function"
    },
    {
      "inputs": [],
      "name": "CAP_ALL",
      "outputs": [
        {
          "internalType": "uint256",
          "name": "",
          "type": "uint256"
        }
      ],
      "stateMutability": "view",
      "type": "function"
    },
    {
      "inputs": [],
      "name": "CAP_BUSINESS",
      "outputs": [
        {
          "internalType": "uint256",
          "name": "",
          "type": "uint256"
        }
      ],
      "stateMutability": "view",
      "type": "function"
    },
    {
      "inputs": [],
      "name": "CAP_CORE",
      "outputs": [
        {
          "internalType": "uint256",
          "name": "",
          "type": "uint256"
        }
      ],
      "stateMutability": "view",
      "type": "function"
    },
    {
      "inputs": [],
      "name": "CAP_NODE",
      "outputs": [
        {
          "internalType": "uint256",
          "name": "",
          "type": "uint256"
        }
      ],
      "stateMutability": "view",
      "type": "function"
    },
    {
      "inputs": [],
      "name": "CAP_SOVEREIGN",
      "outputs": [
        {
          "internalType": "uint256",
          "name": "",
          "type": "uint256"
        }
      ],
      "stateMutability": "view",
      "type": "function"
    },
    {
      "inputs": [],
      "name": "acceptOwnership",
      "outputs": [],
      "stateMutability": "nonpayable",
      "type": "function"
    },
    {
      "inputs": [
        {
          "internalType": "enum AGIClubAccessRegistry.Tier",
          "name": "tier",
          "type": "uint8"
        }
      ],
      "name": "canonicalCapabilities",
      "outputs": [
        {
          "internalType": "uint256",
          "name": "",
          "type": "uint256"
        }
      ],
      "stateMutability": "pure",
      "type": "function"
    },
    {
      "inputs": [
        {
          "internalType": "bytes32",
          "name": "node",
          "type": "bytes32"
        }
      ],
      "name": "currentOwner",
      "outputs": [
        {
          "internalType": "address",
          "name": "owner_",
          "type": "address"
        },
        {
          "internalType": "bool",
          "name": "wrapped",
          "type": "bool"
        },
        {
          "internalType": "uint64",
          "name": "expiry",
          "type": "uint64"
        }
      ],
      "stateMutability": "view",
      "type": "function"
    },
    {
      "inputs": [],
      "name": "ensRegistry",
      "outputs": [
        {
          "internalType": "contract IENSRegistry",
          "name": "",
          "type": "address"
        }
      ],
      "stateMutability": "view",
      "type": "function"
    },
    {
      "inputs": [
        {
          "internalType": "address",
          "name": "user",
          "type": "address"
        },
        {
          "internalType": "uint256",
          "name": "requiredCapabilities",
          "type": "uint256"
        }
      ],
      "name": "hasAnyCapability",
      "outputs": [
        {
          "internalType": "bool",
          "name": "",
          "type": "bool"
        }
      ],
      "stateMutability": "view",
      "type": "function"
    },
    {
      "inputs": [
        {
          "internalType": "address",
          "name": "user",
          "type": "address"
        },
        {
          "internalType": "bytes32",
          "name": "node",
          "type": "bytes32"
        },
        {
          "internalType": "uint256",
          "name": "requiredCapabilities",
          "type": "uint256"
        }
      ],
      "name": "isAuthorized",
      "outputs": [
        {
          "internalType": "bool",
          "name": "",
          "type": "bool"
        }
      ],
      "stateMutability": "view",
      "type": "function"
    },
    {
      "inputs": [],
      "name": "memberCount",
      "outputs": [
        {
          "internalType": "uint256",
          "name": "",
          "type": "uint256"
        }
      ],
      "stateMutability": "view",
      "type": "function"
    },
    {
      "inputs": [
        {
          "internalType": "uint256",
          "name": "index",
          "type": "uint256"
        }
      ],
      "name": "memberNodeAt",
      "outputs": [
        {
          "internalType": "bytes32",
          "name": "",
          "type": "bytes32"
        }
      ],
      "stateMutability": "view",
      "type": "function"
    },
    {
      "inputs": [
        {
          "internalType": "bytes32",
          "name": "node",
          "type": "bytes32"
        }
      ],
      "name": "membership",
      "outputs": [
        {
          "components": [
            {
              "internalType": "bytes32",
              "name": "node",
              "type": "bytes32"
            },
            {
              "internalType": "string",
              "name": "label",
              "type": "string"
            },
            {
              "internalType": "enum AGIClubAccessRegistry.Tier",
              "name": "tier",
              "type": "uint8"
            },
            {
              "internalType": "uint256",
              "name": "capabilities",
              "type": "uint256"
            },
            {
              "internalType": "bool",
              "name": "active",
              "type": "bool"
            },
            {
              "internalType": "uint64",
              "name": "validUntil",
              "type": "uint64"
            },
            {
              "internalType": "bytes32",
              "name": "resourceRoot",
              "type": "bytes32"
            }
          ],
          "internalType": "struct AGIClubAccessRegistry.MembershipView",
          "name": "view_",
          "type": "tuple"
        }
      ],
      "stateMutability": "view",
      "type": "function"
    },
    {
      "inputs": [
        {
          "internalType": "address",
          "name": "user",
          "type": "address"
        },
        {
          "internalType": "uint256",
          "name": "start",
          "type": "uint256"
        },
        {
          "internalType": "uint256",
          "name": "limit",
          "type": "uint256"
        }
      ],
      "name": "membershipsOf",
      "outputs": [
        {
          "components": [
            {
              "internalType": "bytes32",
              "name": "node",
              "type": "bytes32"
            },
            {
              "internalType": "string",
              "name": "label",
              "type": "string"
            },
            {
              "internalType": "enum AGIClubAccessRegistry.Tier",
              "name": "tier",
              "type": "uint8"
            },
            {
              "internalType": "uint256",
              "name": "capabilities",
              "type": "uint256"
            },
            {
              "internalType": "bool",
              "name": "active",
              "type": "bool"
            },
            {
              "internalType": "uint64",
              "name": "validUntil",
              "type": "uint64"
            },
            {
              "internalType": "bytes32",
              "name": "resourceRoot",
              "type": "bytes32"
            }
          ],
          "internalType": "struct AGIClubAccessRegistry.MembershipView[]",
          "name": "results",
          "type": "tuple[]"
        }
      ],
      "stateMutability": "view",
      "type": "function"
    },
    {
      "inputs": [],
      "name": "nameWrapper",
      "outputs": [
        {
          "internalType": "contract INameWrapper",
          "name": "",
          "type": "address"
        }
      ],
      "stateMutability": "view",
      "type": "function"
    },
    {
      "inputs": [
        {
          "internalType": "string",
          "name": "label",
          "type": "string"
        }
      ],
      "name": "nodeForLabel",
      "outputs": [
        {
          "internalType": "bytes32",
          "name": "",
          "type": "bytes32"
        }
      ],
      "stateMutability": "view",
      "type": "function"
    },
    {
      "inputs": [],
      "name": "owner",
      "outputs": [
        {
          "internalType": "address",
          "name": "",
          "type": "address"
        }
      ],
      "stateMutability": "view",
      "type": "function"
    },
    {
      "inputs": [],
      "name": "parentNode",
      "outputs": [
        {
          "internalType": "bytes32",
          "name": "",
          "type": "bytes32"
        }
      ],
      "stateMutability": "view",
      "type": "function"
    },
    {
      "inputs": [],
      "name": "pause",
      "outputs": [],
      "stateMutability": "nonpayable",
      "type": "function"
    },
    {
      "inputs": [],
      "name": "paused",
      "outputs": [
        {
          "internalType": "bool",
          "name": "",
          "type": "bool"
        }
      ],
      "stateMutability": "view",
      "type": "function"
    },
    {
      "inputs": [],
      "name": "pendingOwner",
      "outputs": [
        {
          "internalType": "address",
          "name": "",
          "type": "address"
        }
      ],
      "stateMutability": "view",
      "type": "function"
    },
    {
      "inputs": [
        {
          "internalType": "bytes32",
          "name": "node",
          "type": "bytes32"
        }
      ],
      "name": "removeMembership",
      "outputs": [],
      "stateMutability": "nonpayable",
      "type": "function"
    },
    {
      "inputs": [],
      "name": "renounceOwnership",
      "outputs": [],
      "stateMutability": "nonpayable",
      "type": "function"
    },
    {
      "inputs": [
        {
          "internalType": "string",
          "name": "label",
          "type": "string"
        },
        {
          "internalType": "enum AGIClubAccessRegistry.Tier",
          "name": "tier",
          "type": "uint8"
        },
        {
          "internalType": "bool",
          "name": "active",
          "type": "bool"
        },
        {
          "internalType": "uint64",
          "name": "validUntil",
          "type": "uint64"
        },
        {
          "internalType": "bytes32",
          "name": "resourceRoot",
          "type": "bytes32"
        }
      ],
      "name": "setMembership",
      "outputs": [
        {
          "internalType": "bytes32",
          "name": "node",
          "type": "bytes32"
        }
      ],
      "stateMutability": "nonpayable",
      "type": "function"
    },
    {
      "inputs": [
        {
          "internalType": "string",
          "name": "label",
          "type": "string"
        },
        {
          "internalType": "enum AGIClubAccessRegistry.Tier",
          "name": "tier",
          "type": "uint8"
        },
        {
          "internalType": "uint256",
          "name": "capabilities",
          "type": "uint256"
        },
        {
          "internalType": "bool",
          "name": "active",
          "type": "bool"
        },
        {
          "internalType": "uint64",
          "name": "validUntil",
          "type": "uint64"
        },
        {
          "internalType": "bytes32",
          "name": "resourceRoot",
          "type": "bytes32"
        }
      ],
      "name": "setMembershipWithCapabilities",
      "outputs": [
        {
          "internalType": "bytes32",
          "name": "node",
          "type": "bytes32"
        }
      ],
      "stateMutability": "nonpayable",
      "type": "function"
    },
    {
      "inputs": [
        {
          "internalType": "address",
          "name": "newOwner",
          "type": "address"
        }
      ],
      "name": "transferOwnership",
      "outputs": [],
      "stateMutability": "nonpayable",
      "type": "function"
    },
    {
      "inputs": [],
      "name": "unpause",
      "outputs": [],
      "stateMutability": "nonpayable",
      "type": "function"
    }
  ],
  "bytecode": "0x60e0346200016257601f62001da638819003918201601f19168301916001600160401b03831184841017620001675780849260809460405283398101031262000162576200004d816200017d565b6200005b602083016200017d565b9160606200006c604083016200017d565b910151926001600160a01b0392831690811562000149578390600154600054938060018060a01b03198616176000558360405195167f8be0079c531659141344cd1fd0a4f28419497f9722a3daafe3b4186f6b6457e0600080a36001600160a81b0319166001551690811580156200013e575b6200012f57506080521660a05260c052604051611c139081620001938239608051818181610b0e0152611262015260a051818181610bf70152611298015260c051818181610e9301526118600152f35b63e6c4247b60e01b8152600490fd5b5083831615620000df565b604051631e4fbdf760e01b815260006004820152602490fd5b600080fd5b634e487b7160e01b600052604160045260246000fd5b51906001600160a01b0382168203620001625756fe6080604052600436101561001257600080fd5b60003560e01c80630983f09f146101e757806311aee380146101e2578063154db4c6146101dd57806327cc5739146101d857806329544b7d146101d35780632c87af60146101ce5780633842bb8d146101c95780633f4ba83a146101c457806352abe105146101bf5780635c975abb146101ba5780636479a38b146101b557806365fe3113146101b05780636a57c2da146101ab578063715018a6146101a657806379ba5097146101a15780637d73b2311461019c5780638456cb59146101975780638ce9b8af146101925780638da5cb5b1461018d578063a8e5fbc014610188578063aeae462214610183578063c35f5c5a1461017e578063cc66bd7b14610179578063e0acc70214610174578063e30c39781461016f578063f13eb9ab1461016a578063f2fde38b14610165578063f3068a00146101605763f39453df1461015b57600080fd5b610eb6565b610e7b565b610e0d565b610de5565b610dbe565b610d8b565b610d6f565b610d2e565b610cdf565b610bd7565b610bb0565b610b94565b610b32565b610aee565b610a62565b610a03565b610954565b6108a7565b610664565b61063e565b610622565b6105b0565b6104b1565b610495565b610479565b610430565b6102cd565b610242565b3461023d57602036600319011261023d576004356004548110156102385760209060046000527f8a35acfbc15ff81a39ae7d344fd709f28e8600b4aa8c65c6b64bfe7fe36bd19b0154604051908152f35b610ed2565b600080fd5b3461023d57600036600319011261023d576020600454604051908152f35b9181601f8401121561023d5782359167ffffffffffffffff831161023d576020838186019501011161023d57565b60243590600682101561023d57565b60443590811515820361023d57565b60643590811515820361023d57565b67ffffffffffffffff81160361023d57565b3461023d5760a036600319011261023d5760043567ffffffffffffffff811161023d57610301610406913690600401610260565b7f2301b52286423a9c9600014367e87af6702b443d9991791811fd5cbc0305b4c261032a61028e565b9161033361029d565b936103f3606435610343816102bb565b6084359061034f611b8a565b61036261035d368787610c98565b611756565b978761036e8a99611b13565b908960005260036020526040600020541561040a575b6103e761038f610c58565b61039a368b8b610c98565b81526103a98360208301610f6c565b60408101849052841515606082015267ffffffffffffffff861660808201528660a08201526103e28c6000526002602052604060002090565b611028565b6040519788978861118a565b0390a26040519081529081906020820190565b0390f35b6104138a610f1f565b60045461042a8b6000526003602052604060002090565b55610384565b3461023d57602036600319011261023d57606067ffffffffffffffff61045760043561123d565b906001600160a01b036040949394519416845215156020840152166040820152f35b3461023d57600036600319011261023d57602060405160048152f35b3461023d57600036600319011261023d57602060405160028152f35b3461023d5760c036600319011261023d5760043567ffffffffffffffff811161023d576104e2903690600401610260565b6104ea61028e565b906044356104f66102ac565b9160843594610504866102bb565b60a43594610510611b8a565b61051e61035d368585610c98565b95858061059e575b80610593575b610581576104069787967f2301b52286423a9c9600014367e87af6702b443d9991791811fd5cbc0305b4c2966103f3946105708a6000526003602052604060002090565b541561040a576103e761038f610c58565b6040516303a9648960e41b8152600490fd5b50600185161561052c565b506105a882610814565b811515610526565b3461023d57600036600319011261023d576105c9611b8a565b60015460ff8160a01c16156106105760ff60a01b19166001556040513381527f5db9ee0a495bf2e6ff9c91a7834c1ba4fdd244a5e8aa4e537bd38aeae4b073aa90602090a1005b604051638dfc202b60e01b8152600490fd5b3461023d57600036600319011261023d57602060405160018152f35b3461023d57600036600319011261023d57602060ff60015460a01c166040519015158152f35b3461023d57602036600319011261023d57600435610680611b8a565b610694816000526002602052604060002090565b6106a8826000526003602052604060002090565b54156107b25761074c6106db7faf179930c779d5202a3822f074d64f006fa3f172e1fcb4826efaf20450f2b9be92611381565b6106f86106f2856000526003602052604060002090565b5461143a565b61070360045461143a565b808203610751575b5050610715611476565b60008481526003602052604081205561074061073b856000526002602052604060002090565b6114d2565b6040519182918261153b565b0390a2005b61079961076d6107636107aa93610ee8565b90549060031b1c90565b926107948461077b83610ee8565b90919082549060031b91821b91600019901b1916179055565b61145b565b916000526003602052604060002090565b55388061070b565b604051622f498b60e01b8152600490fd5b6001600160a01b0381160361023d57565b919082519283825260005b848110610800575050826000602080949584010152601f8019910116010190565b6020818301810151848301820152016107df565b6006111561081e57565b634e487b7160e01b600052602160045260246000fd5b90600682101561081e5752565b908151815260c080610862602085015160e0602086015260e08501906107d4565b9361087560408201516040860190610834565b6060810151606085015260808101511515608085015267ffffffffffffffff60a08201511660a0850152015191015290565b3461023d57606036600319011261023d576108dc6004356108c7816107c3565b6108cf611b9e565b6044359060243590611645565b60405160209160208201926020835281518094526040830193602060408260051b8601019301916000955b8287106109145785850386f35b909192938280610930600193603f198a82030186528851610841565b9601920196019592919092610907565b906020610951928181520190610841565b90565b3461023d57602036600319011261023d57610406600435610973611564565b5080600052600260205260406000206109f267ffffffffffffffff60ff60018401541660028401546109cb6003860154926109bd6004880154976109b5610c78565b998a52611381565b602089015260408801610f6c565b606086015260ff81161515608086015260081c1660a084019067ffffffffffffffff169052565b60c082015260405191829182610940565b3461023d57600080600319360112610a5f57610a1d611b8a565b806001600160a01b038019806001541660015582549081168355167f8be0079c531659141344cd1fd0a4f28419497f9722a3daafe3b4186f6b6457e08280a380f35b80fd5b3461023d57600080600319360112610a5f576001546001600160a01b033381831603610ad65773ffffffffffffffffffffffffffffffffffffffff1991821660015582543392811683178455167f8be0079c531659141344cd1fd0a4f28419497f9722a3daafe3b4186f6b6457e08380a380f35b60405163118cdaa760e01b8152336004820152602490fd5b3461023d57600036600319011261023d5760206040516001600160a01b037f0000000000000000000000000000000000000000000000000000000000000000168152f35b3461023d57600036600319011261023d57610b4b611b8a565b610b53611b9e565b6001805460ff60a01b1916600160a01b1790556040513381527f62e78cea01bee320cd4e420270b5ea74000d11b0c9f74754ebdbfc544b05a25890602090a1005b3461023d57600036600319011261023d57602060405160108152f35b3461023d57600036600319011261023d5760206001600160a01b0360005416604051908152f35b3461023d57600036600319011261023d5760206040516001600160a01b037f0000000000000000000000000000000000000000000000000000000000000000168152f35b634e487b7160e01b600052604160045260246000fd5b90601f8019910116810190811067ffffffffffffffff821117610c5357604052565b610c1b565b6040519060c0820182811067ffffffffffffffff821117610c5357604052565b6040519060e0820182811067ffffffffffffffff821117610c5357604052565b92919267ffffffffffffffff8211610c535760405191610cc2601f8201601f191660200184610c31565b82948184528183011161023d578281602093846000960137010152565b3461023d57602036600319011261023d5760043567ffffffffffffffff811161023d573660238201121561023d57610d2661035d6020923690602481600401359101610c98565b604051908152f35b3461023d57606036600319011261023d576020610d65600435610d50816107c3565b610d58611b9e565b60443590602435906119e3565b6040519015158152f35b3461023d57600036600319011261023d57602060405160088152f35b3461023d57604036600319011261023d576020610d65600435610dad816107c3565b610db5611b9e565b60243590611aa3565b3461023d57600036600319011261023d5760206001600160a01b0360015416604051908152f35b3461023d57602036600319011261023d57600435600681101561023d57610d26602091611b13565b3461023d57602036600319011261023d57600435610e2a816107c3565b610e32611b8a565b6001600160a01b0380911690816001600160a01b03196001541617600155600054167f38d16b8cac22d99fc7c124b9cd0de2d3fa1faef420bfe791d8c362d765e22700600080a3005b3461023d57600036600319011261023d5760206040517f00000000000000000000000000000000000000000000000000000000000000008152f35b3461023d57600036600319011261023d576020604051601f8152f35b634e487b7160e01b600052603260045260246000fd5b6004548110156102385760046000527f8a35acfbc15ff81a39ae7d344fd709f28e8600b4aa8c65c6b64bfe7fe36bd19b0190600090565b60045468010000000000000000811015610c535760018101806004558110156102385760046000527f8a35acfbc15ff81a39ae7d344fd709f28e8600b4aa8c65c6b64bfe7fe36bd19b0155565b600682101561081e5752565b90600182811c92168015610fa8575b6020831014610f9257565b634e487b7160e01b600052602260045260246000fd5b91607f1691610f87565b818110610fbd575050565b60008155600101610fb2565b9190601f8111610fd857505050565b611004926000526020600020906020601f840160051c83019310611006575b601f0160051c0190610fb2565b565b9091508190610ff7565b90600681101561081e5760ff80198354169116179055565b90805180519067ffffffffffffffff8211610c53576110518261104b8654610f78565b86610fc9565b602090816001601f85111461111557508260a0936004959361108a9360009261110a575b50508160011b916000199060031b1c19161790565b84555b6110a7602082015161109e81610814565b60018601611010565b60408101516002850155611103600385016110da6110c86060850151151590565b829060ff801983541691151516179055565b6080830151815468ffffffffffffffff00191660089190911b68ffffffffffffffff0016179055565b0151910155565b015190503880611075565b9190601f19841661112b87600052602060002090565b936000905b82821061117257505092600192859260a0966004989610611159575b505050811b01845561108d565b015160001960f88460031b161c1916905538808061114c565b80600186978294978701518155019601940190611130565b936111ce60e08467ffffffffffffffff969b9a999560a0999560c08a528160c08b0152838a01376000888201830152601f01601f1916870101996020870190610834565b6040850152151560608401521660808201520152565b9081602091031261023d5751610951816107c3565b6040513d6000823e3d90fd5b9081606091031261023d57805161121b816107c3565b91602082015163ffffffff8116810361023d57604090920151610951816102bb565b6040516302571be360e01b815260048101829052906001600160a01b036020836024817f000000000000000000000000000000000000000000000000000000000000000085165afa92831561137c5760009361134b575b50807f00000000000000000000000000000000000000000000000000000000000000001680918416146112cc57505090600090600090565b604051630178fe3f60e01b81526004810192909252909150606090829060249082905afa9081600091600093611316575b5061130f575050600090600190600090565b9160019190565b90925061133b915060603d606011611344575b6113338183610c31565b810190611205565b929050386112fd565b503d611329565b61136e91935060203d602011611375575b6113668183610c31565b8101906111e4565b9138611294565b503d61135c565b6111f9565b9060405191826000825461139481610f78565b9081845260209460019160018116908160001461140257506001146113c3575b50505061100492500383610c31565b600090815285812095935091905b8183106113ea57505061100493508201013880806113b4565b855488840185015294850194879450918301916113d1565b9250505061100494925060ff191682840152151560051b8201013880806113b4565b634e487b7160e01b600052601160045260246000fd5b60001981019190821161144957565b611424565b9190820391821161144957565b906001820180921161144957565b9190820180921161144957565b60045480156114bc5760001981019080821015610238577f8a35acfbc15ff81a39ae7d344fd709f28e8600b4aa8c65c6b64bfe7fe36bd19a600091600483520155600455565b634e487b7160e01b600052603160045260246000fd5b60046000916114e18154610f78565b806114fe575b508260018201558260028201558260038201550155565b601f811160011461151457508281555b386114e7565b8390828252611532601f60208420920160051c820160018301610fb2565b8183555561150e565b9060206109519281815201906107d4565b67ffffffffffffffff8111610c535760051b60200190565b6040519060e0820182811067ffffffffffffffff821117610c53576040528160c0600091828152606060208201528260408201528260608201528260808201528260a08201520152565b6040516020810181811067ffffffffffffffff821117610c53576040526000815290565b906115dc8261154c565b6115e96040519182610c31565b82815280926115fa601f199161154c565b019060005b82811061160b57505050565b602090611616611564565b828285010152016115ff565b80518210156102385760209160051b010190565b60001981146114495760010190565b92916004936004549182841080159061174e575b611740576116679084611469565b91808311611738575b5061168361167e848461144e565b6115d2565b946000935b83811061169757505050508252565b6116a361076382610ee8565b6116b7816000526002602052604060002090565b6116c182866118d0565b6116d0575b5050600101611688565b95611730918761171067ffffffffffffffff6116f2600180989c015460ff1690565b60028401546109cb6003860154926109bd8c880154976109b5610c78565b60c082015261171f828b611622565b5261172a818a611622565b50611636565b9490386116c6565b915038611670565b5050505090506109516115ae565b508015611659565b805180159081156118c5575b5061180457602d60f81b90816001600160f81b031961179161178384611bbf565b516001600160f81b03191690565b161480156118a4575b6118045760005b8151811015611845576117c76117ba6117838385611bcc565b6001600160f81b03191690565b606160f81b81101590849082611836575b600360fc1b81101580611828575b8315611820575b508215611816575b505015611804576001016117a1565b604051633d36cb8d60e01b8152600490fd5b14905083386117f5565b9250386117ed565b50603960f81b8111156117e6565b603d60f91b81111592506117d8565b5090506020815191012060405161189e8161189060208201947f0000000000000000000000000000000000000000000000000000000000000000869091604092825260208201520190565b03601f198101835282610c31565b51902090565b50816118bf6117ba6117836118b9855161143a565b85611bcc565b1461179a565b603f91501138611762565b90610951916118dd611b9e565b6001600160a01b03809116801580156119c7575b6119bf57611909836000526002602052604060002090565b9260038401549360ff85161580156119a7575b6119935767ffffffffffffffff809560081c16801515908161199d575b50611993576001600281920154160361198a576119559061123d565b93919050160361198357168015159081611979575b5061197457600190565b600090565b905042113861196a565b5050600090565b50505050600090565b5050505050600090565b9050421138611939565b50600181015460ff166119b981610814565b1561191c565b505050600090565b506119dc836000526003602052604060002090565b54156118f1565b906001600160a01b038092169081158015611a87575b61198a57611a11816000526002602052604060002090565b9360038501549460ff8616158015611a6f575b611a5a5767ffffffffffffffff809660081c168015159081611a65575b50611a5a576002015481160361198a576119559061123d565b505050505050600090565b9050421138611a41565b50600181015460ff16611a8181610814565b15611a24565b50611a9c816000526003602052604060002090565b54156119f9565b906004906004549260009260005b858110611ac357505050505050600090565b818552611afc84827f8a35acfbc15ff81a39ae7d344fd709f28e8600b4aa8c65c6b64bfe7fe36bd19b0154611af6611b9e565b856119e3565b611b0857600101611ab1565b505050505050600190565b611b1c81610814565b60018114611b8457611b2d81610814565b60028114611b7e57611b3e81610814565b60038114611b7857611b4f81610814565b60048114611b725780611b63600592610814565b14611b6d57600090565b601190565b50600990565b50601f90565b50600390565b50600190565b6001600160a01b03600054163303610ad657565b60ff60015460a01c16611bad57565b60405163d93c066560e01b8152600490fd5b8051156102385760200190565b90815181101561023857016020019056fea264697066735822122020e3b1c23157cedc4c9b4b15f1d2fd2d86f156966cb5c31d116dfc6876ac1f1864736f6c63430008180033",
  "linkReferences": {},
  "deployedLinkReferences": {}
}