{
  "_format": "hh-sol-artifact-1",
  "contractName": "GoalOSProofCommerceRegistry",
  "sourceName": "contracts/GoalOSProofCommerceRegistry.sol",
  "abi": [
    {
      "inputs": [
        {
          "internalType": "address",
          "name": "initialOwner",
          "type": "address"
        },
        {
          "internalType": "address",
          "name": "accessRegistryAddress",
          "type": "address"
        }
      ],
      "stateMutability": "nonpayable",
      "type": "constructor"
    },
    {
      "inputs": [],
      "name": "AccessControlBadConfirmation",
      "type": "error"
    },
    {
      "inputs": [
        {
          "internalType": "address",
          "name": "account",
          "type": "address"
        },
        {
          "internalType": "bytes32",
          "name": "neededRole",
          "type": "bytes32"
        }
      ],
      "name": "AccessControlUnauthorizedAccount",
      "type": "error"
    },
    {
      "inputs": [],
      "name": "DuplicateRequest",
      "type": "error"
    },
    {
      "inputs": [],
      "name": "ECDSAInvalidSignature",
      "type": "error"
    },
    {
      "inputs": [
        {
          "internalType": "uint256",
          "name": "length",
          "type": "uint256"
        }
      ],
      "name": "ECDSAInvalidSignatureLength",
      "type": "error"
    },
    {
      "inputs": [
        {
          "internalType": "bytes32",
          "name": "s",
          "type": "bytes32"
        }
      ],
      "name": "ECDSAInvalidSignatureS",
      "type": "error"
    },
    {
      "inputs": [],
      "name": "EnforcedPause",
      "type": "error"
    },
    {
      "inputs": [],
      "name": "ExpectedPause",
      "type": "error"
    },
    {
      "inputs": [],
      "name": "ExpiredIntent",
      "type": "error"
    },
    {
      "inputs": [],
      "name": "InvalidIntent",
      "type": "error"
    },
    {
      "inputs": [],
      "name": "InvalidShortString",
      "type": "error"
    },
    {
      "inputs": [],
      "name": "InvalidState",
      "type": "error"
    },
    {
      "inputs": [
        {
          "internalType": "address",
          "name": "owner",
          "type": "address"
        }
      ],
      "name": "OwnableInvalidOwner",
      "type": "error"
    },
    {
      "inputs": [
        {
          "internalType": "address",
          "name": "account",
          "type": "address"
        }
      ],
      "name": "OwnableUnauthorizedAccount",
      "type": "error"
    },
    {
      "inputs": [
        {
          "internalType": "string",
          "name": "str",
          "type": "string"
        }
      ],
      "name": "StringTooLong",
      "type": "error"
    },
    {
      "inputs": [],
      "name": "UnauthorizedMembership",
      "type": "error"
    },
    {
      "inputs": [],
      "name": "UnknownRequest",
      "type": "error"
    },
    {
      "anonymous": false,
      "inputs": [
        {
          "indexed": true,
          "internalType": "bytes32",
          "name": "requestId",
          "type": "bytes32"
        },
        {
          "indexed": false,
          "internalType": "bytes32",
          "name": "capabilityRoot",
          "type": "bytes32"
        },
        {
          "indexed": false,
          "internalType": "string",
          "name": "capabilityURI",
          "type": "string"
        }
      ],
      "name": "CapabilityAdmitted",
      "type": "event"
    },
    {
      "anonymous": false,
      "inputs": [],
      "name": "EIP712DomainChanged",
      "type": "event"
    },
    {
      "anonymous": false,
      "inputs": [
        {
          "indexed": true,
          "internalType": "bytes32",
          "name": "requestId",
          "type": "bytes32"
        },
        {
          "indexed": false,
          "internalType": "bytes32",
          "name": "evidenceRoot",
          "type": "bytes32"
        },
        {
          "indexed": false,
          "internalType": "bytes32",
          "name": "decisionRoot",
          "type": "bytes32"
        },
        {
          "indexed": false,
          "internalType": "enum GoalOSProofCommerceRegistry.Verdict",
          "name": "verdict",
          "type": "uint8"
        },
        {
          "indexed": false,
          "internalType": "bool",
          "name": "independentlyVerified",
          "type": "bool"
        },
        {
          "indexed": false,
          "internalType": "string",
          "name": "evidenceURI",
          "type": "string"
        }
      ],
      "name": "EvidenceDocketAttested",
      "type": "event"
    },
    {
      "anonymous": false,
      "inputs": [
        {
          "indexed": true,
          "internalType": "bytes32",
          "name": "requestId",
          "type": "bytes32"
        },
        {
          "indexed": true,
          "internalType": "address",
          "name": "requester",
          "type": "address"
        },
        {
          "indexed": true,
          "internalType": "bytes32",
          "name": "memberNode",
          "type": "bytes32"
        },
        {
          "indexed": false,
          "internalType": "bytes32",
          "name": "objectiveRoot",
          "type": "bytes32"
        },
        {
          "indexed": false,
          "internalType": "uint8",
          "name": "serviceType",
          "type": "uint8"
        },
        {
          "indexed": false,
          "internalType": "bytes32",
          "name": "metadataHash",
          "type": "bytes32"
        },
        {
          "indexed": false,
          "internalType": "string",
          "name": "metadataURI",
          "type": "string"
        }
      ],
      "name": "ExecutionRequested",
      "type": "event"
    },
    {
      "anonymous": false,
      "inputs": [
        {
          "indexed": true,
          "internalType": "address",
          "name": "previousOwner",
          "type": "address"
        },
        {
          "indexed": true,
          "internalType": "address",
          "name": "newOwner",
          "type": "address"
        }
      ],
      "name": "OwnershipTransferStarted",
      "type": "event"
    },
    {
      "anonymous": false,
      "inputs": [
        {
          "indexed": true,
          "internalType": "address",
          "name": "previousOwner",
          "type": "address"
        },
        {
          "indexed": true,
          "internalType": "address",
          "name": "newOwner",
          "type": "address"
        }
      ],
      "name": "OwnershipTransferred",
      "type": "event"
    },
    {
      "anonymous": false,
      "inputs": [
        {
          "indexed": false,
          "internalType": "address",
          "name": "account",
          "type": "address"
        }
      ],
      "name": "Paused",
      "type": "event"
    },
    {
      "anonymous": false,
      "inputs": [
        {
          "indexed": true,
          "internalType": "bytes32",
          "name": "requestId",
          "type": "bytes32"
        },
        {
          "indexed": false,
          "internalType": "bytes32",
          "name": "repeatPurchaseRoot",
          "type": "bytes32"
        }
      ],
      "name": "RepeatPurchaseRecorded",
      "type": "event"
    },
    {
      "anonymous": false,
      "inputs": [
        {
          "indexed": true,
          "internalType": "bytes32",
          "name": "requestId",
          "type": "bytes32"
        },
        {
          "indexed": false,
          "internalType": "enum GoalOSProofCommerceRegistry.RequestState",
          "name": "state",
          "type": "uint8"
        }
      ],
      "name": "RequestStateUpdated",
      "type": "event"
    },
    {
      "anonymous": false,
      "inputs": [
        {
          "indexed": true,
          "internalType": "bytes32",
          "name": "role",
          "type": "bytes32"
        },
        {
          "indexed": true,
          "internalType": "bytes32",
          "name": "previousAdminRole",
          "type": "bytes32"
        },
        {
          "indexed": true,
          "internalType": "bytes32",
          "name": "newAdminRole",
          "type": "bytes32"
        }
      ],
      "name": "RoleAdminChanged",
      "type": "event"
    },
    {
      "anonymous": false,
      "inputs": [
        {
          "indexed": true,
          "internalType": "bytes32",
          "name": "role",
          "type": "bytes32"
        },
        {
          "indexed": true,
          "internalType": "address",
          "name": "account",
          "type": "address"
        },
        {
          "indexed": true,
          "internalType": "address",
          "name": "sender",
          "type": "address"
        }
      ],
      "name": "RoleGranted",
      "type": "event"
    },
    {
      "anonymous": false,
      "inputs": [
        {
          "indexed": true,
          "internalType": "bytes32",
          "name": "role",
          "type": "bytes32"
        },
        {
          "indexed": true,
          "internalType": "address",
          "name": "account",
          "type": "address"
        },
        {
          "indexed": true,
          "internalType": "address",
          "name": "sender",
          "type": "address"
        }
      ],
      "name": "RoleRevoked",
      "type": "event"
    },
    {
      "anonymous": false,
      "inputs": [
        {
          "indexed": false,
          "internalType": "address",
          "name": "account",
          "type": "address"
        }
      ],
      "name": "Unpaused",
      "type": "event"
    },
    {
      "inputs": [],
      "name": "DEFAULT_ADMIN_ROLE",
      "outputs": [
        {
          "internalType": "bytes32",
          "name": "",
          "type": "bytes32"
        }
      ],
      "stateMutability": "view",
      "type": "function"
    },
    {
      "inputs": [],
      "name": "EXECUTION_INTENT_TYPEHASH",
      "outputs": [
        {
          "internalType": "bytes32",
          "name": "",
          "type": "bytes32"
        }
      ],
      "stateMutability": "view",
      "type": "function"
    },
    {
      "inputs": [],
      "name": "OPERATOR_ROLE",
      "outputs": [
        {
          "internalType": "bytes32",
          "name": "",
          "type": "bytes32"
        }
      ],
      "stateMutability": "view",
      "type": "function"
    },
    {
      "inputs": [],
      "name": "REVIEWER_ROLE",
      "outputs": [
        {
          "internalType": "bytes32",
          "name": "",
          "type": "bytes32"
        }
      ],
      "stateMutability": "view",
      "type": "function"
    },
    {
      "inputs": [],
      "name": "acceptOwnership",
      "outputs": [],
      "stateMutability": "nonpayable",
      "type": "function"
    },
    {
      "inputs": [],
      "name": "accessRegistry",
      "outputs": [
        {
          "internalType": "contract IAGIClubAccessRegistry",
          "name": "",
          "type": "address"
        }
      ],
      "stateMutability": "view",
      "type": "function"
    },
    {
      "inputs": [
        {
          "internalType": "bytes32",
          "name": "requestId",
          "type": "bytes32"
        },
        {
          "internalType": "bytes32",
          "name": "capabilityRoot",
          "type": "bytes32"
        },
        {
          "internalType": "string",
          "name": "capabilityURI",
          "type": "string"
        }
      ],
      "name": "admitCapability",
      "outputs": [],
      "stateMutability": "nonpayable",
      "type": "function"
    },
    {
      "inputs": [
        {
          "internalType": "bytes32",
          "name": "requestId",
          "type": "bytes32"
        },
        {
          "internalType": "bytes32",
          "name": "evidenceRoot",
          "type": "bytes32"
        },
        {
          "internalType": "bytes32",
          "name": "decisionRoot",
          "type": "bytes32"
        },
        {
          "internalType": "enum GoalOSProofCommerceRegistry.Verdict",
          "name": "verdict",
          "type": "uint8"
        },
        {
          "internalType": "bool",
          "name": "independentlyVerified",
          "type": "bool"
        },
        {
          "internalType": "string",
          "name": "evidenceURI",
          "type": "string"
        }
      ],
      "name": "attestEvidenceDocket",
      "outputs": [],
      "stateMutability": "nonpayable",
      "type": "function"
    },
    {
      "inputs": [],
      "name": "coreCapability",
      "outputs": [
        {
          "internalType": "uint256",
          "name": "",
          "type": "uint256"
        }
      ],
      "stateMutability": "view",
      "type": "function"
    },
    {
      "inputs": [],
      "name": "eip712Domain",
      "outputs": [
        {
          "internalType": "bytes1",
          "name": "fields",
          "type": "bytes1"
        },
        {
          "internalType": "string",
          "name": "name",
          "type": "string"
        },
        {
          "internalType": "string",
          "name": "version",
          "type": "string"
        },
        {
          "internalType": "uint256",
          "name": "chainId",
          "type": "uint256"
        },
        {
          "internalType": "address",
          "name": "verifyingContract",
          "type": "address"
        },
        {
          "internalType": "bytes32",
          "name": "salt",
          "type": "bytes32"
        },
        {
          "internalType": "uint256[]",
          "name": "extensions",
          "type": "uint256[]"
        }
      ],
      "stateMutability": "view",
      "type": "function"
    },
    {
      "inputs": [
        {
          "internalType": "bytes32",
          "name": "role",
          "type": "bytes32"
        }
      ],
      "name": "getRoleAdmin",
      "outputs": [
        {
          "internalType": "bytes32",
          "name": "",
          "type": "bytes32"
        }
      ],
      "stateMutability": "view",
      "type": "function"
    },
    {
      "inputs": [
        {
          "internalType": "bytes32",
          "name": "role",
          "type": "bytes32"
        },
        {
          "internalType": "address",
          "name": "account",
          "type": "address"
        }
      ],
      "name": "grantRole",
      "outputs": [],
      "stateMutability": "nonpayable",
      "type": "function"
    },
    {
      "inputs": [
        {
          "internalType": "bytes32",
          "name": "role",
          "type": "bytes32"
        },
        {
          "internalType": "address",
          "name": "account",
          "type": "address"
        }
      ],
      "name": "hasRole",
      "outputs": [
        {
          "internalType": "bool",
          "name": "",
          "type": "bool"
        }
      ],
      "stateMutability": "view",
      "type": "function"
    },
    {
      "inputs": [
        {
          "components": [
            {
              "internalType": "address",
              "name": "requester",
              "type": "address"
            },
            {
              "internalType": "bytes32",
              "name": "memberNode",
              "type": "bytes32"
            },
            {
              "internalType": "bytes32",
              "name": "objectiveRoot",
              "type": "bytes32"
            },
            {
              "internalType": "uint8",
              "name": "serviceType",
              "type": "uint8"
            },
            {
              "internalType": "bytes32",
              "name": "metadataHash",
              "type": "bytes32"
            },
            {
              "internalType": "uint256",
              "name": "nonce",
              "type": "uint256"
            },
            {
              "internalType": "uint64",
              "name": "deadline",
              "type": "uint64"
            }
          ],
          "internalType": "struct GoalOSProofCommerceRegistry.ExecutionIntent",
          "name": "intent",
          "type": "tuple"
        }
      ],
      "name": "hashExecutionIntent",
      "outputs": [
        {
          "internalType": "bytes32",
          "name": "",
          "type": "bytes32"
        }
      ],
      "stateMutability": "view",
      "type": "function"
    },
    {
      "inputs": [
        {
          "internalType": "address",
          "name": "",
          "type": "address"
        }
      ],
      "name": "nonces",
      "outputs": [
        {
          "internalType": "uint256",
          "name": "",
          "type": "uint256"
        }
      ],
      "stateMutability": "view",
      "type": "function"
    },
    {
      "inputs": [
        {
          "internalType": "bytes32",
          "name": "",
          "type": "bytes32"
        }
      ],
      "name": "outcomes",
      "outputs": [
        {
          "internalType": "bytes32",
          "name": "evidenceRoot",
          "type": "bytes32"
        },
        {
          "internalType": "bytes32",
          "name": "decisionRoot",
          "type": "bytes32"
        },
        {
          "internalType": "bytes32",
          "name": "capabilityRoot",
          "type": "bytes32"
        },
        {
          "internalType": "enum GoalOSProofCommerceRegistry.Verdict",
          "name": "verdict",
          "type": "uint8"
        },
        {
          "internalType": "bool",
          "name": "independentlyVerified",
          "type": "bool"
        },
        {
          "internalType": "bool",
          "name": "repeatPurchase",
          "type": "bool"
        },
        {
          "internalType": "bytes32",
          "name": "repeatPurchaseRoot",
          "type": "bytes32"
        },
        {
          "internalType": "uint64",
          "name": "recordedAt",
          "type": "uint64"
        }
      ],
      "stateMutability": "view",
      "type": "function"
    },
    {
      "inputs": [],
      "name": "owner",
      "outputs": [
        {
          "internalType": "address",
          "name": "",
          "type": "address"
        }
      ],
      "stateMutability": "view",
      "type": "function"
    },
    {
      "inputs": [],
      "name": "pause",
      "outputs": [],
      "stateMutability": "nonpayable",
      "type": "function"
    },
    {
      "inputs": [],
      "name": "paused",
      "outputs": [
        {
          "internalType": "bool",
          "name": "",
          "type": "bool"
        }
      ],
      "stateMutability": "view",
      "type": "function"
    },
    {
      "inputs": [],
      "name": "pendingOwner",
      "outputs": [
        {
          "internalType": "address",
          "name": "",
          "type": "address"
        }
      ],
      "stateMutability": "view",
      "type": "function"
    },
    {
      "inputs": [
        {
          "internalType": "bytes32",
          "name": "requestId",
          "type": "bytes32"
        },
        {
          "internalType": "bytes32",
          "name": "repeatPurchaseRoot",
          "type": "bytes32"
        }
      ],
      "name": "recordRepeatPurchase",
      "outputs": [],
      "stateMutability": "nonpayable",
      "type": "function"
    },
    {
      "inputs": [],
      "name": "renounceOwnership",
      "outputs": [],
      "stateMutability": "nonpayable",
      "type": "function"
    },
    {
      "inputs": [
        {
          "internalType": "bytes32",
          "name": "role",
          "type": "bytes32"
        },
        {
          "internalType": "address",
          "name": "callerConfirmation",
          "type": "address"
        }
      ],
      "name": "renounceRole",
      "outputs": [],
      "stateMutability": "nonpayable",
      "type": "function"
    },
    {
      "inputs": [
        {
          "internalType": "bytes32",
          "name": "memberNode",
          "type": "bytes32"
        },
        {
          "internalType": "bytes32",
          "name": "objectiveRoot",
          "type": "bytes32"
        },
        {
          "internalType": "uint8",
          "name": "serviceType",
          "type": "uint8"
        },
        {
          "internalType": "bytes32",
          "name": "metadataHash",
          "type": "bytes32"
        },
        {
          "internalType": "string",
          "name": "metadataURI",
          "type": "string"
        }
      ],
      "name": "requestExecution",
      "outputs": [
        {
          "internalType": "bytes32",
          "name": "requestId",
          "type": "bytes32"
        }
      ],
      "stateMutability": "nonpayable",
      "type": "function"
    },
    {
      "inputs": [
        {
          "internalType": "bytes32",
          "name": "",
          "type": "bytes32"
        }
      ],
      "name": "requests",
      "outputs": [
        {
          "internalType": "address",
          "name": "requester",
          "type": "address"
        },
        {
          "internalType": "bytes32",
          "name": "memberNode",
          "type": "bytes32"
        },
        {
          "internalType": "bytes32",
          "name": "objectiveRoot",
          "type": "bytes32"
        },
        {
          "internalType": "uint8",
          "name": "serviceType",
          "type": "uint8"
        },
        {
          "internalType": "bytes32",
          "name": "metadataHash",
          "type": "bytes32"
        },
        {
          "internalType": "uint64",
          "name": "createdAt",
          "type": "uint64"
        },
        {
          "internalType": "enum GoalOSProofCommerceRegistry.RequestState",
          "name": "state",
          "type": "uint8"
        }
      ],
      "stateMutability": "view",
      "type": "function"
    },
    {
      "inputs": [
        {
          "internalType": "bytes32",
          "name": "role",
          "type": "bytes32"
        },
        {
          "internalType": "address",
          "name": "account",
          "type": "address"
        }
      ],
      "name": "revokeRole",
      "outputs": [],
      "stateMutability": "nonpayable",
      "type": "function"
    },
    {
      "inputs": [
        {
          "components": [
            {
              "internalType": "address",
              "name": "requester",
              "type": "address"
            },
            {
              "internalType": "bytes32",
              "name": "memberNode",
              "type": "bytes32"
            },
            {
              "internalType": "bytes32",
              "name": "objectiveRoot",
              "type": "bytes32"
            },
            {
              "internalType": "uint8",
              "name": "serviceType",
              "type": "uint8"
            },
            {
              "internalType": "bytes32",
              "name": "metadataHash",
              "type": "bytes32"
            },
            {
              "internalType": "uint256",
              "name": "nonce",
              "type": "uint256"
            },
            {
              "internalType": "uint64",
              "name": "deadline",
              "type": "uint64"
            }
          ],
          "internalType": "struct GoalOSProofCommerceRegistry.ExecutionIntent",
          "name": "intent",
          "type": "tuple"
        },
        {
          "internalType": "string",
          "name": "metadataURI",
          "type": "string"
        },
        {
          "internalType": "bytes",
          "name": "signature",
          "type": "bytes"
        }
      ],
      "name": "submitSignedExecutionIntent",
      "outputs": [
        {
          "internalType": "bytes32",
          "name": "requestId",
          "type": "bytes32"
        }
      ],
      "stateMutability": "nonpayable",
      "type": "function"
    },
    {
      "inputs": [
        {
          "internalType": "bytes4",
          "name": "interfaceId",
          "type": "bytes4"
        }
      ],
      "name": "supportsInterface",
      "outputs": [
        {
          "internalType": "bool",
          "name": "",
          "type": "bool"
        }
      ],
      "stateMutability": "view",
      "type": "function"
    },
    {
      "inputs": [
        {
          "internalType": "address",
          "name": "newOwner",
          "type": "address"
        }
      ],
      "name": "transferOwnership",
      "outputs": [],
      "stateMutability": "nonpayable",
      "type": "function"
    },
    {
      "inputs": [],
      "name": "unpause",
      "outputs": [],
      "stateMutability": "nonpayable",
      "type": "function"
    },
    {
      "inputs": [
        {
          "internalType": "bytes32",
          "name": "requestId",
          "type": "bytes32"
        },
        {
          "internalType": "enum GoalOSProofCommerceRegistry.RequestState",
          "name": "nextState",
          "type": "uint8"
        }
      ],
      "name": "updateRequestState",
      "outputs": [],
      "stateMutability": "nonpayable",
      "type": "function"
    }
  ],
  "bytecode": "0x6101a0604081815234620002e55780826200278b80380380916200002482856200031c565b833981010312620002e5576200003a8262000340565b62000049602080940162000340565b9282516200005781620002ea565b601e8152818101937f476f616c4f532050726f6f6620436f6d6d65726365205265676973747279000085528051936200009085620002ea565b60018552603160f81b8486019081526001600160a01b039590828716908115620002cd57600254600180546001600160a01b031981168517909155600093908a167f8be0079c531659141344cd1fd0a4f28419497f9722a3daafe3b4186f6b6457e08580a36001600160a81b0319166002556200010d8662000514565b98610120998a526200011f84620006ee565b96610140978852519020928360e0525190209661010099888b524660a052855198888a01947f8b73c3c69bb8fe3d512ecc4cf759cc79239f7b179b0ffacaa9a75d522b39400f8652878b015260608a01524660808a01523060a08a015260a0895260c089019389851060018060401b03861117620002b957848752895190206080523060c052169580836004816101609a808c526352abe10560e01b82525afa978815620002af5782986200026f575b50505050620001fc90610180958652620001e98162000355565b50620001f581620003d5565b5062000477565b505193611eb19586620008ba873960805186611a4a015260a05186611b16015260c05186611a1b015260e05186611a9901525185611abf01525184610ce001525183610d0901525182818161023e015281816104e601526107df0152518181816104ba015281816107a801526112880152f35b908092939498503d8311620002a7575b6200028b81866200031c565b81010312620002a457505193620001fc388080620001cf565b80fd5b503d6200027f565b85513d84823e3d90fd5b634e487b7160e01b84526041600452602484fd5b8451631e4fbdf760e01b815260006004820152602490fd5b600080fd5b604081019081106001600160401b038211176200030657604052565b634e487b7160e01b600052604160045260246000fd5b601f909101601f19168101906001600160401b038211908210176200030657604052565b51906001600160a01b0382168203620002e557565b6001600160a01b031660008181527fad3228b676f7d3cd4284a5443f17f1962b36e491b30a40b2405849e597ba5fb5602052604081205490919060ff16620003d157818052816020526040822081835260205260408220600160ff1982541617905533916000805160206200276b8339815191528180a4600190565b5090565b6001600160a01b031660008181527fee57cd81e84075558e8fcc182a1f4393f91fc97f963a136e66b7f949a62f319f60205260408120549091907f97667070c54ef182b0f5858b034beac1b6f3089aa2d3188bb1e8929f4fa9b9299060ff166200047257808352826020526040832082845260205260408320600160ff198254161790556000805160206200276b833981519152339380a4600190565b505090565b6001600160a01b031660008181527f5c91a81dd90adcbb976f07115cdaa60f95931610e4c2893856278a1e5607a9cc60205260408120549091907fc10c77be35aff266144ed64c26a1fa104bae2f284ae99ac4a34203454704a1859060ff166200047257808352826020526040832082845260205260408320600160ff198254161790556000805160206200276b833981519152339380a4600190565b80516020919082811015620005b3575090601f8251116200055257808251920151908083106200054357501790565b82600019910360031b1b161790565b90604051809263305a27a960e01b82528060048301528251908160248401526000935b82851062000599575050604492506000838284010152601f80199101168101030190fd5b848101820151868601604401529381019385935062000575565b6001600160401b03811162000306576003928354926001938481811c91168015620006e3575b83821014620006cd57601f811162000694575b5081601f84116001146200062b57509282939183926000946200061f575b50501b9160001990841b1c191617905560ff90565b0151925038806200060a565b919083601f1981168760005284600020946000905b8883831062000679575050501062000660575b505050811b01905560ff90565b015160001983861b60f8161c1916905538808062000653565b85870151885590960195948501948793509081019062000640565b8560005284601f84600020920160051c820191601f860160051c015b828110620006c0575050620005ec565b60008155018590620006b0565b634e487b7160e01b600052602260045260246000fd5b90607f1690620005d9565b805160209190828110156200077e575090601f8251116200071d57808251920151908083106200054357501790565b90604051809263305a27a960e01b82528060048301528251908160248401526000935b82851062000764575050604492506000838284010152601f80199101168101030190fd5b848101820151868601604401529381019385935062000740565b6001600160401b03811162000306576004928354926001938481811c91168015620008ae575b838210146200089957601f811162000860575b5081601f8411600114620007f75750928293918392600094620007eb575b50501b916000199060031b1c191617905560ff90565b015192503880620007d5565b919083601f1981168760005284600020946000905b888383106200084557505050106200082b57505050811b01905560ff90565b015160001960f88460031b161c1916905538808062000653565b8587015188559096019594850194879350908101906200080c565b8560005284601f84600020920160051c820191601f860160051c015b8281106200088c575050620007b7565b600081550185906200087c565b602286634e487b7160e01b6000525260246000fd5b90607f1690620007a456fe608080604052600436101561001357600080fd5b60003560e01c90816301ffc9a71461136e575080631457d118146112ab5780632084f01c14611270578063248a9ca3146112415780632e4b58d61461116d5780632f2ff15d1461112e57806336568abe146110e75780633b129a56146110ac5780633f4ba83a1461103a5780635a05234214610f765780635c975abb14610f50578063715018a614610ef357806379ba509714610e715780637ecebe0014610e375780638456cb5914610dd557806384b0196e14610cca57806387cf02b61461097f5780638da5cb5b1461095857806391d148541461090a5780639d8669851461087b578063a217fddf1461085f578063b1867d39146105ca578063cc8e5c751461058f578063d434aecf14610454578063d4356e72146103bf578063d46e2a91146102ca578063d547741f14610289578063e30c397814610262578063e6f29b051461021e578063f2fde38b146101b45763f5b541a61461017457600080fd5b346101af5760003660031901126101af5760206040517f97667070c54ef182b0f5858b034beac1b6f3089aa2d3188bb1e8929f4fa9b9298152f35b600080fd5b346101af5760203660031901126101af576101cd611405565b6101d56117ba565b6001600160a01b0380911690816001600160a01b03196002541617600255600154167f38d16b8cac22d99fc7c124b9cd0de2d3fa1faef420bfe791d8c362d765e22700600080a3005b346101af5760003660031901126101af5760206040516001600160a01b037f0000000000000000000000000000000000000000000000000000000000000000168152f35b346101af5760003660031901126101af5760206001600160a01b0360025416604051908152f35b346101af5760403660031901126101af576102c86004356102a86113ef565b908060005260006020526102c360016040600020015461169f565b611744565b005b346101af5760403660031901126101af576004356024356102e9611643565b8160005260066020526040600020600760205260ff6005604060002092015460401c166103158161145b565b80156103ad578061032760039261145b565b148015906103a4575b61039257811561038057817fde1be625da6cb750fb77c8dd0ae2fc4648efcb8a8d74b72b5f36a11bb3f3300f926004836003602095016201000062ff0000198254161790550155604051908152a2005b604051633edae5df60e11b8152600490fd5b60405163baf3f0f760e01b8152600490fd5b50805415610330565b604051636d08029760e01b8152600490fd5b346101af5760203660031901126101af576004356000526007602052610100604060002080549060018101549060ff60028201546003830154908282169067ffffffffffffffff6005600487015496015416956040519788526020880152604087015261042b8161145b565b6060860152818160081c161515608086015260101c16151560a084015260c083015260e0820152f35b346101af5760a03660031901126101af5760043560443560ff811681036101af5760843567ffffffffffffffff81116101af576104959036906004016113c1565b9061049e6117ce565b6040516361afae2d60e11b8152336004820152602481018590527f000000000000000000000000000000000000000000000000000000000000000060448201526020816064817f00000000000000000000000000000000000000000000000000000000000000006001600160a01b03165afa90811561058357600091610554575b50156105425760209361053a936064359160243590336117ef565b604051908152f35b6040516352599ba960e11b8152600490fd5b610576915060203d60201161057c575b61056e81836114d4565b81019061158b565b8561051f565b503d610564565b6040513d6000823e3d90fd5b346101af5760003660031901126101af5760206040517fab718677dad6c24437176c341966cb5ba3440dcbf06970fd6979bb47c759b21f8152f35b346101af57366003190161012081126101af5760e0136101af5767ffffffffffffffff60e4358181116101af576106059036906004016113c1565b610104929192358281116101af576106219036906004016113c1565b93909261062c6117ce565b6106346114a1565b4291161061084e576001600160a01b039360a4358561065161147b565b1660005260209560058752604060002054820361038057610673368686611544565b878151910120926084358094036103805761068c61147b565b9660243580948a6044359a8b926106a1611491565b908a6106ab6114a1565b92604051968796870198610727968a959167ffffffffffffffff9460e0969299989460ff926001600160a01b036101008b019c7fab718677dad6c24437176c341966cb5ba3440dcbf06970fd6979bb47c759b21f8c521660208b015260408a0152606089015216608087015260a086015260c085015216910152565b03601f198101825261073990826114d4565b519020610745906115a3565b91369061075192611544565b61075a91611d40565b61076391611d7c565b818061076d61147b565b1691160361038057866107db9161078261147b565b6040516361afae2d60e11b81526001600160a01b039091166004820152602481018590527f0000000000000000000000000000000000000000000000000000000000000000604482015292839190829081906064820190565b03917f0000000000000000000000000000000000000000000000000000000000000000165afa90811561058357600091610831575b50156105425761053a9461082261147b565b9161082b611491565b926117ef565b6108489150873d891161057c5761056e81836114d4565b87610810565b60405162202b7560e21b8152600490fd5b346101af5760003660031901126101af57602060405160008152f35b346101af5760203660031901126101af57600435600052600660205260e060406000206001600160a01b038154169067ffffffffffffffff60018201549160028101549060ff600382015416600560048301549201549260ff8460401c169560405197885260208801526040870152606086015260808501521660a08301526109038161145b565b60c0820152f35b346101af5760403660031901126101af576109236113ef565b60043560005260006020526001600160a01b0360406000209116600052602052602060ff604060002054166040519015158152f35b346101af5760003660031901126101af5760206001600160a01b0360015416604051908152f35b346101af5760c03660031901126101af57600760643510156101af5760843580151581036101af5760a43567ffffffffffffffff81116101af576109c79036906004016113c1565b6109d29291926115c9565b600435600052600660205260056040600020019160ff835460401c166109f78161145b565b80156103ad57610a068161145b565b60038114908115610cb5575b8115610ca1575b5061039257610a2960643561145b565b606435158015610c97575b8015610c8d575b6103805760043560005260076020526040600020936002850154916004600387015496015492604051938461010081011067ffffffffffffffff61010087011117610c775760058567ffffffffffffffff9260ff9a6101007f33d3eeb88583eff16c907046340cacc897f44a505762b0708507c313620c30469901604052602435835260208301956044358752604084019081526060840191610adf60643561145b565b6064358352608085019189151583528e60a087019260101c161515825260c0860194855260e08601988842168a52600435600052600760205260406000209651875551600187015551600286015560038501925191610b3d8361145b565b610b468361145b565b8e62ff000061ff0086549351151560081b169351151560101b1693169062ffffff191617171790555160048201550191511667ffffffffffffffff19825416179055610b9360643561145b565b606435600403610c2f57610ba960045b86611517565b610bee60405192839260243584526044356020850152610bca60643561145b565b60643560408501521515606084015260a060808401526004359560a08401916114f6565b0390a25460401c1660405190610c038161145b565b81527f0215bace59e77975892ea6eb9ddc2355aaa0d1239702d614a9d91550d01829be602060043592a2005b610c3a60643561145b565b606435600503610c4e57610ba96005610ba3565b610c5960643561145b565b606435600603610c6d57610ba96006610ba3565b610ba96003610ba3565b634e487b7160e01b600052604160045260246000fd5b5060443515610a3b565b5060243515610a34565b60069150610cae8161145b565b1485610a19565b9050610cc08161145b565b6005811490610a12565b346101af5760003660031901126101af57610d047f0000000000000000000000000000000000000000000000000000000000000000611b3c565b610d2d7f0000000000000000000000000000000000000000000000000000000000000000611c68565b60405160208082019282841067ffffffffffffffff851117610c7757916020610d888594610d7a979660405260008452604051978897600f60f81b895260e0858a015260e089019061141b565b90878203604089015261141b565b91466060870152306080870152600060a087015285830360c0870152519182815201929160005b828110610dbe57505050500390f35b835185528695509381019392810192600101610daf565b346101af5760003660031901126101af57610dee6117ba565b610df66117ce565b6002805460ff60a01b1916600160a01b1790556040513381527f62e78cea01bee320cd4e420270b5ea74000d11b0c9f74754ebdbfc544b05a25890602090a1005b346101af5760203660031901126101af576001600160a01b03610e58611405565b1660005260056020526020604060002054604051908152f35b346101af5760003660031901126101af576002546001600160a01b033381831603610edb576001600160a01b03198092166002556001549133908316176001553391167f8be0079c531659141344cd1fd0a4f28419497f9722a3daafe3b4186f6b6457e0600080a3005b60405163118cdaa760e01b8152336004820152602490fd5b346101af5760003660031901126101af57610f0c6117ba565b60006001600160a01b0380198060025416600255600154908116600155167f8be0079c531659141344cd1fd0a4f28419497f9722a3daafe3b4186f6b6457e08280a3005b346101af5760003660031901126101af57602060ff60025460a01c166040519015158152f35b346101af5760403660031901126101af5760043560243560078110156101af57610f9e611643565b816000526006602052600560406000200160ff815460401c16610fc08161145b565b80156103ad57610fcf8361145b565b821590811561101e575b50610392578161100c7f0215bace59e77975892ea6eb9ddc2355aaa0d1239702d614a9d91550d01829be93602093611517565b604051906110198161145b565b8152a2005b90506110298161145b565b6110328361145b565b821484610fd9565b346101af5760003660031901126101af576110536117ba565b60025460ff8160a01c161561109a5760ff60a01b19166002556040513381527f5db9ee0a495bf2e6ff9c91a7834c1ba4fdd244a5e8aa4e537bd38aeae4b073aa90602090a1005b604051638dfc202b60e01b8152600490fd5b346101af5760003660031901126101af5760206040517fc10c77be35aff266144ed64c26a1fa104bae2f284ae99ac4a34203454704a1858152f35b346101af5760403660031901126101af576111006113ef565b336001600160a01b0382160361111c576102c890600435611744565b60405163334bd91960e11b8152600490fd5b346101af5760403660031901126101af576102c860043561114d6113ef565b9080600052600060205261116860016040600020015461169f565b6116c5565b346101af5760603660031901126101af5760043560243560443567ffffffffffffffff81116101af576111a49036906004016113c1565b90916111ae6115c9565b83600052600660205260406000206007602052600360ff6005604060002093015460401c166111dc8161145b565b14801590611238575b610392578115610380577f2857ba6c938bb55b7c6c414c7679adf2667739381147bb07fb699e928b91f5299382600261123393015560405193849384526040602085015260408401916114f6565b0390a2005b508054156111e5565b346101af5760203660031901126101af5760043560005260006020526020600160406000200154604051908152f35b346101af5760003660031901126101af5760206040517f00000000000000000000000000000000000000000000000000000000000000008152f35b346101af5760e03660031901126101af57602061053a6112c961147b565b6112d1611491565b6113666112dc6114a1565b604080517fab718677dad6c24437176c341966cb5ba3440dcbf06970fd6979bb47c759b21f8882019081526001600160a01b03909616602087015260243591860191909152604435606086015260ff909316608085015260843560a085015260a43560c085015267ffffffffffffffff1660e084015281610100840103601f1981018352826114d4565b5190206115a3565b346101af5760203660031901126101af576004359063ffffffff60e01b82168092036101af57602091637965db0b60e01b81149081156113b0575b5015158152f35b6301ffc9a760e01b149050836113a9565b9181601f840112156101af5782359167ffffffffffffffff83116101af57602083818601950101116101af57565b602435906001600160a01b03821682036101af57565b600435906001600160a01b03821682036101af57565b919082519283825260005b848110611447575050826000602080949584010152601f8019910116010190565b602081830181015184830182015201611426565b6007111561146557565b634e487b7160e01b600052602160045260246000fd5b6004356001600160a01b03811681036101af5790565b60643560ff811681036101af5790565b60c43567ffffffffffffffff811681036101af5790565b6040810190811067ffffffffffffffff821117610c7757604052565b90601f8019910116810190811067ffffffffffffffff821117610c7757604052565b908060209392818452848401376000828201840152601f01601f1916010190565b906115218161145b565b68ff000000000000000082549160401b169068ff00000000000000001916179055565b92919267ffffffffffffffff8211610c77576040519161156e601f8201601f1916602001846114d4565b8294818452818301116101af578281602093846000960137010152565b908160209103126101af575180151581036101af5790565b6042906115ae611a11565b906040519161190160f01b8352600283015260228201522090565b3360009081527f5c91a81dd90adcbb976f07115cdaa60f95931610e4c2893856278a1e5607a9cc60205260409020547fc10c77be35aff266144ed64c26a1fa104bae2f284ae99ac4a34203454704a1859060ff16156116255750565b6044906040519063e2517d3f60e01b82523360048301526024820152fd5b3360009081527fee57cd81e84075558e8fcc182a1f4393f91fc97f963a136e66b7f949a62f319f60205260409020547f97667070c54ef182b0f5858b034beac1b6f3089aa2d3188bb1e8929f4fa9b9299060ff16156116255750565b80600052600060205260406000203360005260205260ff60406000205416156116255750565b90600091808352826020526001600160a01b036040842092169182845260205260ff6040842054161560001461173f57808352826020526040832082845260205260408320600160ff198254161790557f2f8788117e7eff1d82e926ec794901d17c78024a50270940304540a733656f0d339380a4600190565b505090565b90600091808352826020526001600160a01b036040842092169182845260205260ff60408420541660001461173f5780835282602052604083208284526020526040832060ff1981541690557ff6391f5c32d9c69d2a47ea670b442974b53935d1edc7fd64eb21e047a839171b339380a4600190565b6001600160a01b03600154163303610edb57565b60ff60025460a01c166117dd57565b60405163d93c066560e01b8152600490fd5b929396959490948215610380576001600160a01b039788851695600095878752602096600588526040928382205492600184018085116119fd578b845260058b52858420558451938a8501913060601b83524660348701526bffffffffffffffffffffffff199060601b1660548601528c606886015289608886015260a885015260a8845260e084019367ffffffffffffffff94818110868211176119e95786525190209c8d835260068a5260ff60058685200154861c166118b08161145b565b6119d85784519260e08401848110868211176119c4578f9b9996938b99968f8f978f949b7f511dc89abbb22b8d2e1e013730bbaf9630b8cfaa94f95bdd884bff215328cea59f948f98956005946119bf9f978c6119a19b869f60019b835288528d8801938452818801948552600660ff60608a0197169e8f885260808a0198895260a08a019d8e8d4216905260c08b019d8e52835252209551166001600160a01b031986541617855551600185015551600284015560ff6003840191511660ff198254161790555160048201550192511667ffffffffffffffff19835416178255519061199c8261145b565b611517565b815197889788528701528501526080606085015260808401916114f6565b0390a4565b634e487b7160e01b82526041600452602482fd5b845163e27d026d60e01b8152600490fd5b634e487b7160e01b85526041600452602485fd5b634e487b7160e01b84526011600452602484fd5b6001600160a01b037f000000000000000000000000000000000000000000000000000000000000000016301480611b13575b15611a6c577f000000000000000000000000000000000000000000000000000000000000000090565b60405160208101907f8b73c3c69bb8fe3d512ecc4cf759cc79239f7b179b0ffacaa9a75d522b39400f82527f000000000000000000000000000000000000000000000000000000000000000060408201527f000000000000000000000000000000000000000000000000000000000000000060608201524660808201523060a082015260a0815260c0810181811067ffffffffffffffff821117610c775760405251902090565b507f00000000000000000000000000000000000000000000000000000000000000004614611a43565b60ff8114611b7a5760ff811690601f8211611b685760405191611b5e836114b8565b8252602082015290565b604051632cd44ac360e21b8152600490fd5b5060405160006003549060018260011c9060018416938415611c5e575b6020948584108114611c4a5783875286949392918115611c2a5750600114611bcb575b5050611bc8925003826114d4565b90565b9093915060036000527fc2575a0e9e593c00f959f8c92f12db2869c3395a3b0502d05e2516446f71f85b936000915b818310611c12575050611bc893508201013880611bba565b85548784018501529485019486945091830191611bfa565b915050611bc894925060ff191682840152151560051b8201013880611bba565b634e487b7160e01b85526022600452602485fd5b91607f1691611b97565b60ff8114611c8a5760ff811690601f8211611b685760405191611b5e836114b8565b5060405160006004549060018260011c9060018416938415611d36575b6020948584108114611c4a5783875286949392918115611c2a5750600114611cd7575050611bc8925003826114d4565b9093915060046000527f8a35acfbc15ff81a39ae7d344fd709f28e8600b4aa8c65c6b64bfe7fe36bd19b936000915b818310611d1e575050611bc893508201013880611bba565b85548784018501529485019486945091830191611d06565b91607f1691611ca7565b8151919060418303611d7157611d6a92506020820151906060604084015193015160001a90611deb565b9192909190565b505060009160029190565b60048110156114655780611d8e575050565b60018103611da85760405163f645eedf60e01b8152600490fd5b60028103611dc95760405163fce698f760e01b815260048101839052602490fd5b600314611dd35750565b602490604051906335e2f38360e21b82526004820152fd5b91907f7fffffffffffffffffffffffffffffff5d576e7357a4501ddfe92f46681b20a08411611e6f57926020929160ff608095604051948552168484015260408301526060820152600092839182805260015afa15611e635780516001600160a01b03811615611e5a57918190565b50809160019190565b604051903d90823e3d90fd5b5050506000916003919056fea264697066735822122081a540caaefec13b4eccea368f1e166821088d234b6a19b2c161c76e00b26b1964736f6c634300081800332f8788117e7eff1d82e926ec794901d17c78024a50270940304540a733656f0d",
  "linkReferences": {},
  "deployedLinkReferences": {}
}